:020000040800F2
:1000000000280020791200089110000899100008BB
:10001000A1100008A9100008B1100008000000009D
:10002000000000000000000000000000B9100008FF
:10003000C510000800000000D1100008DD10000805
:10004000C1120008C1120008C1120008C112000844
:10005000C1120008C1120008C1120008C112000834
:10006000C1120008C1120008C1120008C112000824
:10007000C1120008C1120008C1120008C112000814
:10008000C1120008C1120008C1120008C112000804
:10009000C1120008C1120008C1120008C1120008F4
:1000A000C1120008C1120008C1120008C1120008E4
:1000B000C1120008C112000800000000C1120008AF
:1000C000C11200080000000000000000C11200087A
:1000D00000000000C1120008C1120008000000006A
:1000E000C1120008C1120008C1120008000000007F
:1000F0000000000000000000000000000000000000
:0C01000000000000000000005FF808F1A3
:1001100010B5054C237833B9044B13B10448AFF341
:1001200000800123237010BDD401002000000000D6
:100130009067000808B5034B1BB103490348AFF3B0
:10014000008008BD00000000D80100209067000872
:10015000034613F8012B002AFBD1181A0138704707
:1001600081F0004102E000BF83F0004330B54FEA68
:1001700041044FEA430594EA050F08BF90EA020FD5
:100180001FBF54EA000C55EA020C7FEA645C7FEA68
:10019000655C00F0E2804FEA5454D4EB5555B8BF8B
:1001A0006D420CDD2C4480EA020281EA030382EAFC
:1001B000000083EA010180EA020281EA0303362D8E
:1001C00088BF30BD11F0004F4FEA01314FF4801C61
:1001D0004CEA113102D0404261EB410113F0004F73
:1001E0004FEA03334CEA133302D0524263EB43032A
:1001F00094EA050F00F0A780A4F10104D5F1200EC8
:100200000DDB02FA0EFC22FA05F2801841F1000122
:1002100003FA0EF2801843FA05F359410EE0A5F1F6
:1002200020050EF1200E012A03FA0EFC28BF4CF027
:10023000020C43FA05F3C01851EBE37101F00045DD
:1002400007D54FF0000EDCF1000C7EEB00006EEBEA
:100250000101B1F5801F1BD3B1F5001F0CD3490874
:100260005FEA30004FEA3C0C04F101044FEA4452CB
:1002700012F5800F80F09A80BCF1004F08BF5FEA52
:10028000500C50F1000041EB045141EA050130BD32
:100290005FEA4C0C404141EB0101013C28BFB1F544
:1002A000801FE9D291F0000F04BF01460020B1FA8F
:1002B00081F308BF2033A3F10B03B3F120020CDA62
:1002C0000C3208DD02F1140CC2F10C0201FA0CF040
:1002D00021FA02F10CE002F11402D8BFC2F1200CA5
:1002E00001FA02F120FA0CFCDCBF41EA0C0190405B
:1002F000E41AA2BF01EB0451294330BD6FEA0404A4
:100300001F3C1CDA0C340EDC04F11404C4F120028E
:1003100020FA04F001FA02F340EA030021FA04F3A0
:1003200045EA030130BDC4F10C04C4F1200220FAF7
:1003300002F001FA04F340EA0300294630BD21FA35
:1003400004F0294630BD94F0000F83F4801306BFFB
:1003500081F480110134013D4EE77FEA645C18BFEF
:100360007FEA655C29D094EA050F08BF90EA020F86
:1003700005D054EA000C04BF1946104630BD91EA7E
:10038000030F1EBF0021002030BD5FEA545C05D181
:100390004000494128BF41F0004130BD14F58004C0
:1003A0003CBF01F5801130BD01F0004545F0FE4134
:1003B00041F470014FF0000030BD7FEA645C1ABF69
:1003C000194610467FEA655C1CBF0B46024650EAA0
:1003D000013406BF52EA033591EA030F41F40021CC
:1003E00030BD00BF90F0000F04BF0021704730B552
:1003F0004FF4806404F132044FF000054FF0000127
:1004000050E700BF90F0000F04BF0021704730B5E7
:100410004FF4806404F1320410F0004548BF4042BC
:100420004FF000013EE700BF42004FEAE2014FEA11
:1004300031014FEA02701FBF12F07F4393F07F4FEC
:1004400081F06051704732F07F4208BF704793F0EF
:100450007F4F04BF41F40021704730B54FF4607402
:1004600001F0004521F000411CE700BF50EA010205
:1004700008BF704730B54FF000050AE050EA0102AE
:1004800008BF704730B511F0004502D5404261EB1E
:1004900041014FF4806404F132045FEA915C3FF45F
:1004A000D8AE4FF003025FEADC0C18BF03325FEAFC
:1004B000DC0C18BF033202EBDC02C2F1200300FAAD
:1004C00003FC20FA02F001FA03FE40EA0E0021FAD2
:1004D00002F11444BDE600BF70B54FF0FF0C4CF4C0
:1004E000E06C1CEA11541DBF1CEA135594EA0C0F72
:1004F00095EA0C0F00F0DEF82C4481EA030621EAAD
:100500004C5123EA4C5350EA013518BF52EA0335E7
:1005100041F4801143F4801338D0A0FB02CE4FF099
:100520000005E1FB02E506F00042E0FB03E54FF0C9
:100530000006E1FB03569CF0000F18BF4EF0010EC1
:10054000A4F1FF04B6F5007F64F5407404D25FEABD
:100550004E0E6D4146EB060642EAC62141EA555170
:100560004FEAC52040EA5E504FEACE2EB4F1FD0CB2
:1005700088BFBCF5E06F1ED8BEF1004F08BF5FEA30
:10058000500E50F1000041EB045170BD06F00046E2
:1005900046EA010140EA020081EA0301B4EB5C048F
:1005A000C2BFD4EB0C0541EA045170BD41F4801187
:1005B0004FF0000E013C00F3AB8014F1360FDEBFAC
:1005C000002001F0004170BDC4F10004203C35DA88
:1005D0000C341BDC04F11404C4F1200500FA05F30B
:1005E00020FA04F001FA05F240EA020001F00042AC
:1005F00021F0004110EBD37021FA04F642EB060122
:100600005EEA430E08BF20EAD37070BDC4F10C044B
:10061000C4F1200500FA04F320FA05F001FA04F20F
:1006200040EA020001F0004110EBD37041F10001FB
:100630005EEA430E08BF20EAD37070BDC4F1200506
:1006400000FA05F24EEA020E20FA04F301FA05F26E
:1006500043EA020321FA04F001F0004121FA04F216
:1006600020EA020000EBD3705EEA430E08BF20EAE6
:10067000D37070BD94F0000F0FD101F00046400020
:1006800041EB010111F4801F08BF013CF7D041EAA2
:10069000060195F0000F18BF704703F000465200A6
:1006A00043EB030313F4801F08BF013DF7D043EA77
:1006B0000603704794EA0C0F0CEA135518BF95EA2D
:1006C0000C0F0CD050EA410618BF52EA4306D1D1B4
:1006D00081EA030101F000414FF0000070BD50EAD3
:1006E000410606BF1046194652EA430619D094EA5D
:1006F0000C0F02D150EA013613D195EA0C0F05D147
:1007000052EA03361CBF104619460AD181EA03019A
:1007100001F0004141F0FE4141F470014FF0000052
:1007200070BD41F0FE4141F4780170BD70B54FF0ED
:10073000FF0C4CF4E06C1CEA11541DBF1CEA13556D
:1007400094EA0C0F95EA0C0F00F0A7F8A4EB05044F
:1007500081EA030E52EA03354FEA013100F0888046
:100760004FEA03334FF0805545EA131343EA12630F
:100770004FEA022245EA111545EA10654FEA0026C4
:100780000EF000419D4208BF964244F1FD0404F57D
:10079000407402D25B084FEA3202B61A65EB0305D9
:1007A0005B084FEA32024FF480104FF4002CB6EB96
:1007B000020E75EB030E22BFB61A754640EA0C0016
:1007C0005B084FEA3202B6EB020E75EB030E22BF56
:1007D000B61A754640EA5C005B084FEA3202B6EB97
:1007E000020E75EB030E22BFB61A754640EA9C0056
:1007F0005B084FEA3202B6EB020E75EB030E22BF26
:10080000B61A754640EADC0055EA060E18D04FEAE3
:10081000051545EA16754FEA06164FEAC30343EA83
:1008200052734FEAC2025FEA1C1CC0D111F4801F50
:100830000BD141EA00014FF000004FF0004CB6E749
:1008400011F4801F04BF01430020B4F1FD0C88BFE8
:10085000BCF5E06F3FF6AFAEB5EB030C04BFB6EBF3
:10086000020C5FEA500C50F1000041EB045170BDE6
:100870000EF0004E4EEA113114EB5C04C2BFD4EB13
:100880000C0541EA045170BD41F480114FF0000E97
:10089000013C90E645EA060E8DE60CEA135594EA13
:1008A0000C0F08BF95EA0C0F3FF43BAF94EA0C0F16
:1008B0000AD150EA01347FF434AF95EA0C0F7FF48B
:1008C00025AF104619462CE795EA0C0F06D152EADF
:1008D00003353FF4FDAE1046194622E750EA4106C3
:1008E00018BF52EA43067FF4C5AE50EA41047FF4D4
:1008F0000DAF52EA43057FF4EBAE12E74FF0FF3C39
:1009000006E000BF4FF0010C02E000BF4FF0010C09
:100910004DF804CD4FEA410C7FEA6C5C4FEA430C82
:1009200018BF7FEA6C5C1BD001B050EA410C0CBFD1
:1009300052EA430C91EA030F02BF90EA020F002033
:10094000704710F1000F91EA030F58BF994208BF9A
:1009500090422CBFD8176FEAE37040F00100704757
:100960004FEA410C7FEA6C5C02D150EA013C07D1AE
:100970004FEA430C7FEA6C5CD6D152EA033CD3D0F9
:100980005DF8040B704700BF8446104662468C46F3
:100990001946634600E000BF01B5FFF7B7FF002826
:1009A00048BF10F1000F01BD4DF808EDFFF7F4FF4F
:1009B0000CBF012000205DF808FB00BF4DF808EDDA
:1009C000FFF7EAFF34BF012000205DF808FB00BFFD
:1009D0004DF808EDFFF7E0FF94BF012000205DF81F
:1009E00008FB00BF4DF808EDFFF7CEFF94BF0120D4
:1009F00000205DF808FB00BF4DF808EDFFF7C4FFCD
:100A000034BF012000205DF808FB00BF4FEA410C15
:100A10007FEA6C5C02D150EA013C0AD14FEA430CF8
:100A20007FEA6C5C02D152EA033C02D14FF0000035
:100A300070474FF0010070474FEA410212F5001273
:100A400015D211D56FF47873B3EB625212D94FEA15
:100A5000C12343F0004343EA505311F0004F23FAFF
:100A600002F018BF404270474FF00000704750EA54
:100A7000013005D111F0004008BF6FF00040704711
:100A80004FF00000704700BF4A0011D212F500126B
:100A900011D20DD56FF47873B3EB62520ED44FEAD6
:100AA000C12343F0004343EA505323FA02F0704756
:100AB0004FF00000704750EA013002D14FF0FF3094
:100AC00070474FF0000070474FEA4102B2F1E04337
:100AD00024BFB3F5001CDCF1FE5C0DD901F0004C25
:100AE0004FEAC0024CEA5070B2F1004F40EB830075
:100AF00008BF20F00100704711F0804F21D113F1A1
:100B00003872BCBF01F00040704741F480114FEAD9
:100B10005252C2F11802C2F1200C10FA0CF320FA62
:100B200002F018BF40F001004FEAC1234FEAD3237F
:100B300003FA0CFC40EA0C0023FA02F34FEA4303E9
:100B4000CCE77FEA625307D150EA01331EBF4FF072
:100B5000FE4040F44000704701F0004040F0FE408D
:100B600040F40000704700BF38B50022002304465F
:100B70000D46FFF723FF28B920462946BDE8384037
:100B800000F00AB8204605F1004100F005F84042A7
:100B900061EB410138BD00BFD0B500220B4B0646CA
:100BA0000F46FFF799FCFFF76FFF0446FFF71AFCAB
:100BB0000022074BFFF790FC02460B4630463946B1
:100BC000FFF7D2FAFFF760FF2146D0BD0000F03DED
:100BD0000000F04180B586B000AF2D4A07F1080350
:100BE00092E8030083E803002A4A3B4692E80300A8
:100BF00083E8030000237B6141E001220F212648A6
:100C000000F05DFE7B695B0018333B4433F8103C19
:100C100000221946204800F052FE00233B6128E0E4
:100C20003B695B0018333B4433F8183C19461A48BB
:100C300000F02EFE0346002B18D1142000F0A4FB78
:100C400000BF3B695B0018333B4433F8183C19463E
:100C5000114800F01DFE0346002BF2D00F4A7B69BD
:100C60009B001A443B6913441B780CE03B69013339
:100C70003B613B69032BD3DD7B6901337B617B697E
:100C8000032BBADD002318461837BD4680BD00BFD0
:100C9000A8670008B067000800080140F86700086E
:100CA00080B500AF01220221074800F008FE0120B4
:100CB00000F06AFB00220221034800F000FE012040
:100CC00000F062FB00BF80BD000C014080B582B027
:100CD00000AF0346FB71FB7903F00103DBB21A4658
:100CE0004FF48051154800F0EAFDFB795B10DBB250
:100CF00003F00103DBB21A464FF400510F4800F035
:100D0000DEFDFB799B10DBB203F00103DBB21A4678
:100D10004FF48041094800F0D2FDFB79DB10DBB2D3
:100D200003F00103DBB21A464FF40041034800F020
:100D3000C6FD00BF0837BD4680BD00BF000C0140A6
:100D400080B582B000AF0346FB71002201210C4840
:100D500000F0B5FDFB791B09DBB21846FFF7B6FFC3
:100D6000FFF79EFFFB7903F00F03DBB21846FFF796
:100D7000ADFFFFF795FF00BF0837BD4680BD00BF40
:100D8000000C014080B582B000AF0346FB71012228
:100D900001210C4800F093FDFB791B09DBB21846DA
:100DA000FFF794FFFFF77CFFFB7903F00F03DBB243
:100DB0001846FFF78BFFFFF773FF00BF0837BD46EC
:100DC00080BD00BF000C014080B500AF322000F0B4
:100DD000DBFA3320FFF7B4FF3220FFF7B1FF282002
:100DE000FFF7AEFF0C20FFF7ABFF0620FFF7A8FFD1
:100DF00000F017F800BF80BD80B582B000AF78600A
:100E000006E07B685A1C7A601B781846FFF7BAFF29
:100E10007B681B78002BF4D100BF00BF0837BD46AC
:100E200080BD80B500AF0120FFF78AFF022000F0EF
:100E3000ABFA00BF80BD000080B582B000AF00F00B
:100E400041FA00F03BF800F07FF8FFF7BDFF1748CC
:100E5000FFF7D2FFC82000F097FAFFF7E2FF14482F
:100E6000FFF7CAFFC020FFF76BFFFFF7B3FE034693
:100E7000FB71FB79002BF8D0FB79432B10D1FFF7E6
:100E8000D0FF0C48FFF7B8FF642000F07DFAFFF7B1
:100E9000C8FF0948FFF7B0FFC020FFF751FFE4E7A4
:100EA000FB791846FFF76EFFDFE700BFB867000861
:100EB000CC670008DC670008E867000880B590B0E0
:100EC00000AF07F1180328220021184602F084F829
:100ED0003B1D00221A605A609A60DA601A61012391
:100EE000BB614FF48033FB6100233B620123BB6293
:100EF00002237B634FF48033BB634FF4E013FB6347
:100F000007F11803184600F0F3FC0346002B01D04C
:100F100000F086F80F237B600223BB600023FB6098
:100F20004FF480633B6100237B613B1D0221184627
:100F300000F060FF0346002B01D000F071F800BF05
:100F40004037BD4680BD000080B588B000AF07F1D6
:100F5000100300221A605A609A60DA602D4B9B6978
:100F60002C4A43F0200393612A4B9B6903F0200332
:100F7000FB60FB68274B9B69264A43F0040393619F
:100F8000244B9B6903F00403BB60BB68214B9B6946
:100F9000204A43F0080393611E4B9B6903F008034A
:100FA0007B607B6800220F211B4800F088FC002238
:100FB0004FF20301194800F082FC0F233B6101232B
:100FC0007B610023BB610223FB6107F1100319461B
:100FD000114800F0E1FAF0233B6100237B6101231B
:100FE000BB6107F1100319460B4800F0D5FA4FF228
:100FF00003033B6101237B610023BB610223FB618F
:1010000007F110031946054800F0C6FA00BF203763
:10101000BD4680BD0010024000080140000C0140A8
:1010200080B400AF72B600BF00BFFDE780B485B0EA
:1010300000AF154B9B69144A43F001039361124BB7
:101040009B6903F00103BB60BB680F4BDB690E4A71
:1010500043F08053D3610C4BDB6903F080537B601A
:101060007B680A4B5B68FB60FB6823F0E063FB6016
:10107000FB6843F00073FB60044AFB68536000BFE9
:101080001437BD4680BC704700100240000001408C
:1010900080B400AF00BFFDE780B400AF00BFFDE744
:1010A00080B400AF00BFFDE780B400AF00BFFDE734
:1010B00080B400AF00BFFDE780B400AF00BFBD4605
:1010C00080BC704780B400AF00BFBD4680BC704795
:1010D00080B400AF00BFBD4680BC704780B500AF94
:1010E00000F036F900BF80BD80B400AF0123184680
:1010F000BD4680BC704780B582B000AF7860396073
:1011000001F0BCFF034616221A604FF0FF33184669
:101110000837BD4680BD80B582B000AF78604FF023
:10112000FF317868FFF7E7FF00BFFDE780B586B0C5
:1011300000AFF860B9607A6000237B610AE0AFF32A
:1011400000800146BB685A1CBA60CAB21A707B693B
:1011500001337B617A697B689A42F0DB7B681846D1
:101160001837BD4680BD80B586B000AFF860B96065
:101170007A6000237B6109E0BB685A1CBA601B7867
:101180001846AFF300807B6901337B617A697B6825
:101190009A42F1DB7B6818461837BD4680BD80B4A3
:1011A00083B000AF78604FF0FF3318460C37BD4670
:1011B00080BC704780B483B000AF786039603B6812
:1011C0004FF400525A60002318460C37BD4680BCCD
:1011D000704780B483B000AF7860012318460C37A5
:1011E000BD4680BC704780B485B000AFF860B96080
:1011F0007A60002318461437BD4680BC7047000053
:1012000080B586B000AF7860144A154BD31A7B6165
:101210007B693B61134B1B68002B02D1114B124AB7
:101220001A60104B1A687B6813443A699A4207D2D5
:1012300001F024FF03460C221A604FF0FF3309E04F
:10124000084B1B68FB60074B1A687B681344054A10
:101250001360FB6818461837BD4680BD0028002083
:1012600000040000F00100204803002080B400AF1B
:1012700000BFBD4680BC7047FFF7F8FF0B480C4924
:101280000C4A002302E0D458C4500433C4188C42E2
:10129000F9D3094A094C002301E013600432A24249
:1012A000FBD301F0F1FEFFF7C7FD704700000020FF
:1012B000D4010020646C0008D40100204403002005
:1012C000FEE7000080B500AF084B1B68074A43F0FB
:1012D00010031360032000F02BF90F2000F008F832
:1012E000FFF7A4FE0023184680BD00BF0020024087
:1012F00080B582B000AF7860124B1A68124B1B7831
:1013000019464FF47A73B3FBF1F3B2FBF3F31846CB
:1013100000F035F90346002B01D001230EE07B6875
:101320000F2B0AD8002279684FF0FF3000F00BF93C
:10133000064A7B681360002300E001231846083743
:10134000BD4680BD000000200800002004000020F1
:1013500080B400AF054B1B781A46054B1B6813443D
:10136000034A136000BFBD4680BC704708000020E0
:10137000F401002080B400AF024B1B681846BD4644
:1013800080BC7047F401002080B584B000AF786065
:10139000FFF7F0FFB8607B68FB60FB68B3F1FF3FCD
:1013A00005D00A4B1B781A46FB681344FB6000BF4C
:1013B000FFF7E0FF0246BB68D31AFA689A42F7D8F3
:1013C00000BF00BF1037BD4680BD00BF0800002031
:1013D00080B485B000AF78607B6803F00703FB60E2
:1013E0000C4BDB68BB60BA684FF6FF031340BB6071
:1013F000FB681A02BB68134343F0BF6343F4003336
:10140000BB60044ABB68D36000BF1437BD4680BCD4
:10141000704700BF00ED00E080B400AF044BDB6814
:101420001B0A03F007031846BD4680BC704700BF87
:1014300000ED00E080B483B000AF03463960FB717B
:1014400097F90730002B0ADB3B68DAB20C4997F9B1
:1014500007301201D2B20B4483F800230AE03B6844
:10146000DAB20849FB7903F00F03043B1201D2B250
:101470000B441A7600BF0C37BD4680BC704700BFD6
:1014800000E100E000ED00E080B489B000AFF8605A
:10149000B9607A60FB6803F00703FB61FB69C3F185
:1014A0000703042B28BF0423BB61FB690433062B0D
:1014B00002D9FB69033B00E000237B614FF0FF3260
:1014C000BB6902FA03F3DA43BB681A407B699A40AE
:1014D0004FF0FF317B6901FA03F3D9437B680B407E
:1014E000134318462437BD4680BC704780B582B090
:1014F00000AF78607B68013BB3F1807F01D30123AB
:101500000FE00A4A7B68013B53600F214FF0FF3028
:10151000FFF790FF054B00229A60044B07221A60E8
:10152000002318460837BD4680BD00BF10E000E02C
:1015300080B582B000AF78607868FFF749FF00BFE0
:101540000837BD4680BD80B586B000AF0346B960A0
:101550007A60FB7300237B61FFF75EFF78617A6836
:10156000B9687869FFF790FF024697F90F30114686
:101570001846FFF75FFF00BF1837BD4680BD80B536
:1015800082B000AF78607868FFF7B0FF0346184676
:101590000837BD4680BD000080B48BB000AF7860D6
:1015A000396000237B6200233B6261E101227B6A98
:1015B00002FA03F3FB613B681B68FA691340BB61E5
:1015C000BA69FB699A4240F050813B685B68974A70
:1015D00093425ED0954A934275D8954A934258D02B
:1015E000934A93426FD8934A934252D0914A93427E
:1015F00069D8914A93424CD08F4A934263D88F4A1C
:10160000934246D08D4A93425DD8122B2AD8122B92
:1016100059D801A252F823F0931600086D1600085D
:101620007F160008C1160008C7160008C716000874
:10163000C7160008C7160008C7160008C716000816
:10164000C7160008C7160008C7160008C716000806
:10165000C7160008C7160008C71600087516000848
:1016600089160008764A934213D02CE03B68DB6869
:101670003B6229E03B68DB6804333B6224E03B6863
:10168000DB6808333B621FE03B68DB680C333B627E
:101690001AE03B689B68002B02D104233B6213E0F5
:1016A0003B689B68012B05D108233B627B68FA6984
:1016B0001A6109E008233B627B68FA695A6103E01A
:1016C00000233B6200E000BFBB69FF2B01D87B68B1
:1016D00001E07B6804337B61BB69FF2B02D87B6A26
:1016E0009B0002E07B6A083B9B003B617B691A68B8
:1016F0000F213B6901FA03F3DB431A40396A3B6966
:1017000001FA03F31A437B691A603B685B6803F0D4
:101710008053002B00F0A9804A4B9B69494A43F053
:1017200001039361474B9B6903F00103BB60BB68F6
:10173000454A7B6A9B08023352F82330FB607B6A80
:1017400003F003039B000F2202FA03F3DB43FA6862
:101750001340FB607B683D4A93420DD07B683C4A56
:10176000934207D07B683B4A934201D1022304E0B5
:10177000032302E0012300E000237A6A02F003025F
:1017800092009340FA681343FB602F497B6A9B08E1
:101790000233FA6841F823203B685B6803F4801346
:1017A000002B06D02C4B9A682B49BB6913438B60E6
:1017B00006E0294B9A68BB69DB43274913408B60DD
:1017C0003B685B6803F40013002B06D0224BDA68F9
:1017D0002149BB691343CB6006E01F4BDA68BB6944
:1017E000DB431D491340CB603B685B6803F4003367
:1017F000002B06D0184B5A681749BB6913434B603E
:1018000006E0154B5A68BB69DB43134913404B6034
:101810003B685B6803F48033002B1FD00E4B1A68C3
:101820000D49BB6913430B601FE000BF000032107D
:1018300000003110000022100000211000001210E2
:10184000000011100010024000000140000801409B
:10185000000C014000100140000401400B4B1A68CD
:10186000BB69DB43094913400B607B6A01337B6230
:101870003B681A687B6A22FA03F3002B7FF496AE6A
:1018800000BF00BF2C37BD4680BC7047000401403C
:1018900080B485B000AF78600B467B807B689A6827
:1018A0007B881340002B02D00123FB7301E000234F
:1018B000FB73FB7B18461437BD4680BC704780B471
:1018C00083B000AF78600B467B8013467B707B78DB
:1018D000002B03D07A887B681A6103E07B881A04A6
:1018E0007B681A6100BF0C37BD4680BC70470000A2
:1018F00080B586B000AF78607B68002B01D10123F2
:1019000072E27B681B6803F00103002B00F0878004
:10191000924B5B6803F00C03042B0CD08F4B5B687D
:1019200003F00C03082B12D18C4B5B6803F480335B
:10193000B3F5803F0BD1894B1B6803F40033002BB8
:101940006CD07B685B68002B68D101234CE27B681C
:101950005B68B3F5803F06D1804B1B687F4A43F438
:10196000803313602EE07B685B68002B0CD17B4BCF
:101970001B687A4A23F480331360784B1B68774ADC
:1019800023F4802313601DE07B685B68B3F5A02F10
:101990000CD1724B1B68714A43F4802313606F4B68
:1019A0001B686E4A43F4803313600BE06B4B1B687B
:1019B0006A4A23F480331360684B1B68674A23F438
:1019C000802313607B685B68002B13D0FFF7D2FC89
:1019D000386108E0FFF7CEFC02463B69D31A642B5E
:1019E00001D9032300E25D4B1B6803F40033002B95
:1019F000F0D014E0FFF7BEFC386108E0FFF7BAFC56
:101A000002463B69D31A642B01D90323ECE1534B03
:101A10001B6803F40033002BF0D100E000BF7B68AB
:101A20001B6803F00203002B63D04C4B5B6803F090
:101A30000C03002B0BD0494B5B6803F00C03082B05
:101A40001CD1464B5B6803F48033002B16D1434B0B
:101A50001B6803F00203002B05D07B681B69012B78
:101A600001D00123C0E13D4B1B6823F0F8027B68E5
:101A70005B69DB00394913430B603AE07B681B6903
:101A8000002B20D0364B01221A60FFF773FC38611F
:101A900008E0FFF76FFC02463B69D31A022B01D91D
:101AA0000323A1E12D4B1B6803F00203002BF0D0B0
:101AB0002A4B1B6823F0F8027B685B69DB0027492F
:101AC00013430B6015E0264B00221A60FFF752FC0F
:101AD000386108E0FFF74EFC02463B69D31A022B3F
:101AE00001D9032380E11D4B1B6803F00203002B87
:101AF000F0D17B681B6803F00803002B3AD07B68A9
:101B00009B69002B19D0174B01221A60FFF732FC9A
:101B1000386108E0FFF72EFC02463B69D31A022B1E
:101B200001D9032360E10D4B5B6A03F00203002B34
:101B3000F0D0012000F09CFA1CE00A4B00221A6051
:101B4000FFF718FC38610FE0FFF714FC02463B6911
:101B5000D31A022B08D9032346E100BF001002402C
:101B60000000424280044242924B5B6A03F002034F
:101B7000002BE9D17B681B6803F00403002B00F005
:101B8000A6800023FB758B4BDB6903F08053002B91
:101B90000DD1884BDB69874A43F08053D361854B75
:101BA000DB6903F08053BB60BB680123FB75824B8C
:101BB0001B6803F48073002B18D17F4B1B687E4A8F
:101BC00043F480731360FFF7D5FB386108E0FFF73B
:101BD000D1FB02463B69D31A642B01D9032303E1ED
:101BE000754B1B6803F48073002BF0D07B68DB68B7
:101BF000012B06D16F4B1B6A6E4A43F0010313623F
:101C00002DE07B68DB68002B0CD16A4B1B6A694AAC
:101C100023F001031362674B1B6A664A23F0040337
:101C200013621CE07B68DB68052B0CD1614B1B6ADF
:101C3000604A43F0040313625E4B1B6A5D4A43F043
:101C4000010313620BE05B4B1B6A5A4A23F001034A
:101C50001362584B1B6A574A23F0040313627B68D4
:101C6000DB68002B15D0FFF785FB38610AE0FFF732
:101C700081FB02463B69D31A41F28832934201D973
:101C80000323B1E04B4B1B6A03F00203002BEED0A1
:101C900014E0FFF76FFB38610AE0FFF76BFB0246C9
:101CA0003B69D31A41F28832934201D903239BE066
:101CB000404B1B6A03F00203002BEED1FB7D012B8E
:101CC00005D13C4BDB693B4A23F08053D3617B68F1
:101CD000DB69002B00F08780364B5B6803F00C0358
:101CE000082B61D07B68DB69022B46D1334B002285
:101CF0001A60FFF73FFB386108E0FFF73BFB024645
:101D00003B69D31A022B01D903236DE0294B1B68D1
:101D100003F00073002BF0D17B681B6AB3F5803FA2
:101D200008D1244B5B6823F400327B689B6821490F
:101D300013434B601F4B5B6823F474127B68196A72
:101D40007B685B6A0B431B4913434B601B4B0122AF
:101D50001A60FFF70FFB386108E0FFF70BFB024644
:101D60003B69D31A022B01D903233DE0114B1B68B9
:101D700003F00073002BF0D035E0104B00221A6006
:101D8000FFF7F8FA386108E0FFF7F4FA02463B691A
:101D9000D31A022B01D9032326E0064B1B6803F05C
:101DA0000073002BF0D11EE07B68DB69012B07D1AB
:101DB000012319E000100240007000406000424220
:101DC0000B4B5B68FB60FB6803F480327B681B6A2B
:101DD0009A4206D1FB6803F470127B685B6A9A42F0
:101DE00001D0012300E0002318461837BD4680BD0E
:101DF0000010024080B584B000AF786039607B6825
:101E0000002B01D10123D0E06A4B1B6803F00703CC
:101E10003A689A4210D9674B1B6823F0070265495C
:101E20003B6813430B60634B1B6803F007033A687E
:101E30009A4201D00123B8E07B681B6803F00203DB
:101E4000002B20D07B681B6803F00403002B05D017
:101E5000594B5B68584A43F4E06353607B681B68E6
:101E600003F00803002B05D0534B5B68524A43F440
:101E700060535360504B5B6823F0F0027B689B68B3
:101E80004D4913434B607B681B6803F00103002B33
:101E900040D07B685B68012B07D1474B1B6803F47C
:101EA0000033002B15D101237FE07B685B68022B98
:101EB00007D1414B1B6803F00073002B09D10123AC
:101EC00073E03D4B1B6803F00203002B01D101239B
:101ED0006BE0394B5B6823F003027B685B68364933
:101EE00013434B60FFF746FAF8600AE0FFF742FA47
:101EF0000246FB68D31A41F28832934201D9032388
:101F000053E02D4B5B6803F00C027B685B689B0021
:101F10009A42EBD1274B1B6803F007033A689A42B9
:101F200010D2244B1B6823F0070222493B6813435D
:101F30000B60204B1B6803F007033A689A4201D0FC
:101F4000012332E07B681B6803F00403002B08D0F8
:101F5000194B5B6823F4E0627B68DB681649134326
:101F60004B607B681B6803F00803002B09D0124B01
:101F70005B6823F460527B681B69DB000E491343E6
:101F80004B6000F021F802460B4B5B681B0903F025
:101F90000F030A49CB5C22FA03F3094A1360094B89
:101FA0001B681846FFF7A4F9002318461037BD46F2
:101FB00080BD00BF002002400010024008680008F9
:101FC000000000200400002080B487B000AF002390
:101FD000FB600023BB6000237B6100237B60002348
:101FE0003B611E4B5B68FB60FB6803F00C03042B3A
:101FF00002D0082B03D027E0194B3B6127E0FB6898
:102000009B0C03F00F03174AD35C7B60FB6803F45F
:102010008033002B10D0114B5B685B0C03F0010385
:10202000114AD35CBB607B680D4A03FB02F2BB68BC
:10203000B2FBF3F37B6104E07B680C4A02FB03F321
:102040007B617B693B6102E0054B3B6100BF3B6903
:1020500018461C37BD4680BC704700BF00100240C8
:1020600000127A00186800082868000800093D007E
:1020700080B485B000AF78600A4B1B680A4AA2FBA7
:1020800003235B0A7A6802FB03F3FB6000BFFB6873
:102090005A1EFA60002BF9D100BF00BF1437BD46AD
:1020A00080BC704700000020D34D6210002B2DE94A
:1020B000F0471D46BBBF03F100431D4600232D23FF
:1020C00088B01446B8BF1446129A109E1370149B21
:1020D000DDF84CA023F02008B8F1460F05D0B8F188
:1020E000450F00D10136022300E0032307AA049222
:1020F00006AACDE902A2CDE9003622462B4601F020
:1021000087F8B8F1470F074619D1119BDB070ED5A9
:1021100000EB06090022002320462946FEF744FC76
:1021200008B1CDF81C903022079B4B451ED3384692
:10213000079B159ADB1B136008B0BDE8F087B8F168
:10214000460F00EB0609E5D10378302B0AD10022B7
:10215000002320462946FEF727FC18B9C6F10106E0
:10216000CAF80060DAF800309944D3E7591C0791A7
:102170001A70D9E7F7B50029B6BF2D232B234942A2
:1021800009290270437029DD0DF1070425460A274D
:10219000B1FBF7F6224607FB1613303302F8013C79
:1021A0000B46632B314604F1FF34F1DC3031931ED2
:1021B00004F8011C1C46411CAB420AD30DF1090373
:1021C0009B1AA54238BF0023821C1344181A03B07F
:1021D000F0BD13F8016B01F8016FEDE730233031EA
:1021E0008370C170031DF1E72DE9F04F91B00C46EB
:1021F000DDF8688016461F46054600F0F5FE0368C8
:1022000018460A93FDF7A4FF00230E93D8F8003078
:1022100094F818A0073323F00703F3E80212D4F868
:1022200000B0CDE90812C8F8003013460A46C4E9E8
:102230001223DDE9088323F000490B904FF0FF32B1
:10224000404649469B4BFEF7E1FB70BB4FF0FF3227
:1022500040464946974BFEF7BBFB30BBDDE9080122
:1022600000220023FEF7AAFB10B12D2384F843308F
:10227000914A924BBAF1470F8CBF90469846032380
:102280004FF0000923612BF00403236033462146FD
:10229000284600970FAA00F0D3F9013040F08F8054
:1022A0004FF0FF3011B0BDE8F08FDDE90823104694
:1022B0001946FEF7ABFB40B1099B814A002BBCBF1E
:1022C0002D2384F843307F4BD4E763680AF0DF099D
:1022D0005A1C3ED10623636000224BF480632360C6
:1022E00006920EAACDE904A20DAA03920DF13302C3
:1022F000CDE90132636828460093DDE90823FFF742
:10230000D5FEB9F1470F80460D9929D1C81C02DBD3
:1023100063688B4241DAAAF1020A5FFA8AFA5246EE
:10232000013904F150000D91FFF724FF0E9A814608
:102330001318012A236102DC2268D20701D5013378
:1023400023619DF83330002BA0D02D2384F8433037
:102350009CE7B9F1470FBFD1002BBDD10123BAE7EC
:10236000BAF1650FDBD9BAF1660F18D1002963689D
:102370000BDD216113B92268D00702D501330B446C
:1023800023614FF00009A165DBE713B92268D2078A
:1023900001D50233F4E70123F2E74FF0670A0E9B01
:1023A0008B4205DC23682161D807EAD54B1CE7E79F
:1023B0000029CCBF0122C1F102021344E0E72368E7
:1023C0005A0507D42369424631462846B8470130AA
:1023D0002BD165E7BAF1650F40F2DC80D4E9120138
:1023E00000220023FEF7E0FA002833D00123314613
:1023F0002846354AB84701303FF452AFDDE90D3881
:10240000434502DB2368D8070FD5DDE90A233146AF
:102410002846B84701303FF443AF4FF0000908F1B8
:10242000FF3804F11A0AC84509DC23689B0700F14C
:102430000281E0680F9B9842B8BF184632E701233B
:10244000524631462846B84701303FF429AF09F1DA
:102450000109E8E70D9B002B38DC012331462846B3
:10246000194AB84701303FF41BAFDDE90D3959EA8D
:10247000030302D12368D907D7D5DDE90A23314602
:102480002846B84701303FF40BAF4FF0000A04F183
:102490001A0B0D9B5B42534501DC4B4693E701232E
:1024A0005A4631462846B84701303FF4F9AE0AF1A2
:1024B000010AEEE7FFFFEF7F2E6800082A68000898
:1024C00036680008326800083A680008A36DDDF835
:1024D00038A05345A8BF5346002B994636DC4FF031
:1024E000000B29EAE97904F11A02A36D0893A3EB22
:1024F00009035B4531DC0D9B9A453ADC2368DA071A
:1025000037D40D9BAAEB0309089BAAEB030399455B
:10251000A8BF9946B9F1000F33DC4FF0000829EA53
:10252000E97904F11A0B0D9BAAEB0303A3EB090352
:1025300043457FF77AAF01235A4631462846B847CC
:1025400001303FF4ADAE08F10108ECE742463146F8
:102550002846B8470130C2D1A2E6012331462846B9
:102560000892B84701303FF49BAE089A0BF1010B7B
:10257000BBE73146DDE90A232846B8470130C0D120
:102580008EE6089A4B46314628464244B847013009
:10259000C3D185E6DDF838A0BAF1010F01DCDB0715
:1025A00036D50123424631462846B84701303FF42C
:1025B00077AEDDE90A2331462846B84701303FF4BB
:1025C0006FAED4E91201002200230AF1FF3AFEF7B0
:1025D000EBF9C0B9534608F1010231462846B84725
:1025E00001300CD15CE601235A4631462846B847F3
:1025F00001303FF455AE08F10108D045F3DB4B46FE
:1026000004F15002E0E64FF0000804F11A0BF4E781
:1026100001234246E1E701234A4631462846B847AE
:1026200001303FF43DAE08F10108E3680F995B1AF1
:102630004345F0DCFDE64FF0000804F11909F4E72A
:102640002DE9F047164698468A680B69074693427B
:10265000B8BF1346336091F843200C46DDF8209054
:102660000AB1013333602368990642BF33680233ED
:102670003360256815F0060506D104F1190AE368F0
:1026800032689B1AAB422BDC94F843302268003B43
:1026900018BF0123920630D44146384604F1430264
:1026A000C847013023D02368226903F00603042BB6
:1026B00014BF002533684FF0000608BFE56804F139
:1026C0001A0408BFED1A54F8123C08BF25EAE57554
:1026D0009342C4BF9B1AED18B5421AD1002008E0FE
:1026E0000123524641463846C847013003D14FF0D6
:1026F000FF30BDE8F0870135C1E73020E11881F8EF
:1027000043005A1C94F845102244023382F84310C7
:10271000C2E70123224641463846C8470130E6D089
:102720000136D9E72DE9F0430D7E85B0782D90462E
:1027300007460C4699460C9E01F1430207D8622DCC
:102740000AD8002D00F0D780582D00F0BC8004F18D
:10275000420684F842503BE0A5F16303152BF6D8FE
:1027600001A151F823F000BFC1270008D5270008B8
:102770004F2700084F2700084F2700084F27000861
:10278000D52700084F2700084F2700084F270008CB
:102790004F270008DD280008FF2700088F280008C1
:1027A0004F2700084F270008FF2800084F27000880
:1027B000FF2700084F2700084F2700089728000828
:1027C00033681A1D1B68326004F1420684F84230F7
:1027D0000123A1E033682068191D3160060601D588
:1027E0001D6803E04506FBD5B3F90050002D03DA60
:1027F0002D236D4284F843300A235B4811E02168A1
:102800003368080653F8045B02D4490648BFADB2EA
:102810003360237E54486F2B5CD10823002184F859
:1028200043106668002EA66005DB21682E4321F068
:102830000401216050D01646B5FBF3F103FB115C97
:1028400010F80CC006F801CDAC4663450D46F3D92F
:10285000082B0BD12368DB0708D5236961689942EF
:10286000DEBF302306F8013C06F1FF36921B2261E1
:10287000434621463846CDF8009003AAFFF7E0FE14
:1028800001304ED14FF0FF3005B0BDE8F083236832
:1028900043F0200323607825344884F845502368AA
:1028A000316813F0800F51F8045B03D113F0400F2F
:1028B00018BFADB23160D90744BF43F02003236095
:1028C0001DB11023AAE72848E7E7236823F0200377
:1028D0002360F6E70A23A1E71646B9E733682568BF
:1028E000181D616930602E061B6801D5196002E071
:1028F0006806FBD51980002316462361B8E73368C4
:1029000000211A1D32601E686268304600F0E3FB49
:1029100008B1801B606063682361002384F8433042
:10292000A6E73246414638462369C8470130A9D058
:1029300023689B0713D4E068039B9842B8BF1846EE
:10294000A2E70123324641463846C847013099D0B4
:102950000135E36803995B1AAB42F2DCEBE7002533
:1029600004F11906F5E700BF3C6800084D6800084F
:102970002DE9F04F87B003938B6891465A1EB2F54C
:10298000AE7F82BF6FF4AE7503EB050B40F25D13B3
:102990000A464FF0000588BF8B600B68804643F401
:1029A000F06342F81C3B0C4698BF4FF0000B1646F4
:1029B000AA462F46CDE9045501920295A2685AB164
:1029C000D9F800301B784E2B62D8402B3AD8A3F1AF
:1029D0002B01C8B20E2838D91FB1236823F48073A5
:1029E00023600AF1FF3ABAF1010F00F21481019B52
:1029F0009E4200F20581012007B0BDE8F08FA3F1EF
:102A000061020D2AE8D801A151F822F0552B0008E7
:102A1000D9290008D9290008D9290008B12B0008B4
:102A20008B2B0008D9290008D9290008632B00083E
:102A3000D9290008D9290008D9290008D92900086E
:102A40001F2B0008A3F14102DBE70E29C4D801A027
:102A500050F821F00F2B0008D92900080F2B00088F
:102A60009F2B0008D9290008B12A0008F52A000880
:102A7000F52A0008F52A0008F52A0008F52A0008BA
:102A8000F52A0008F52A0008F52A0008F52A0008AA
:102A90006E2B09D8602BB2D8542B7BD0592B9BD1ED
:102AA000072D99D108252FE0742B73D0792BF6E7E9
:102AB0002168C8051ED521F0800121600137BBF1D6
:102AC000000F03D001320BF1FF3BA260A368013B72
:102AD000A360236901332361D9F80430013B002B43
:102AE000C9F8043040F38380D9F800300133C9F8C5
:102AF000003063E71AEB05017FF46EAF0D468A469E
:102B0000226822F4C072226006F8013BDEE72268E8
:102B100010067FF561AF22F080022260F4E7BAF17F
:102B2000000F0CD177B9226802F4E061B1F5E06FD3
:102B300008D122F4F0624FF0010A2260E4E7BAF112
:102B4000020F51D0012D02D0042D7FF445AF013585
:102B5000EDB2D9E7BAF1010F7FF43EAF4FF0020AB0
:102B6000D2E775B9002F7FF438AF226802F4E06134
:102B7000B1F5E06F40F0FF8022F4F06201252260A1
:102B8000C2E7032DE3D0052DDFE7022D7FF424AF4C
:102B90000325B9E7062D7FF41FAF0725B4E72268A8
:102BA00091057FF519AF22F4207222600297ABE7FE
:102BB000226802F4A061B1F5806F05D050057FF561
:102BC0000BAF002F00F0D780910558BF029922F477
:102BD000F06258BF791A42F4C0724FF0000758BF34
:102BE000CDE9041622608FE74FF0030A8CE74946CF
:102BF0004046D4F88031984700283FF4DFAEEBE63A
:102C0000D4F87C314A46404616F8011D984723699E
:102C1000013B2361EBE66B1E062B24D8022D36D830
:102C2000019B9E427FF6E7AED4F87C314A4640468F
:102C300016F8011D98472369013B2361F0E7D4F89A
:102C40007C314A4640461BF8011D98472369013BE9
:102C500023610AF1FF3A5FFA8AFABAF1020FEED164
:102C6000033DEDB2761B2368DA0530D55B0511D53F
:102C7000019B9E427FF6BFAED4F87C314A46404667
:102C800016F8011D98472369013B2361F0E7AA4626
:102C9000B346DEE716F8011C2369652903F1FF330B
:102CA00006F1FF3523610CD045290AD0D4F87C31D8
:102CB0004A4640469847236916F8021C013BB51E58
:102CC00023614A464046D4F87C3198472E46226814
:102CD00012F0100201D000208EE63270236803F457
:102CE000C063B3F5806F25D1029B9F420AD0DA1BE7
:102CF00004F26F139E4228BF04F5B77630461F4991
:102D000000F004F900224046019902F005FC039B03
:102D100025681B6815F0020F06460F4603F10402F2
:102D200015D003990A601B68C3E90067E3680133A3
:102D3000E360D0E7049B002BE4D005990A234046CA
:102D4000013102F069FC049B059EC21AD0E76D07B1
:102D5000E7D4039D2A601D6802460B46FDF756FE28
:102D600020B1074800F0C6F92860DFE73046394651
:102D7000FDF7AAFEF8E7002733E600BF5E6800080B
:102D80009F690008002310B50446C0E90033C0E97C
:102D90000433836081814366C281836119460822BE
:102DA0005C3000F019F90D4B246263620C4BA36296
:102DB0000C4BE3620C4B23630C4B9C4206D003F19B
:102DC0006802944202D0D0339C4205D104F15800ED
:102DD000BDE8104000F07CB910BD00BF512F0008C5
:102DE000732F0008AB2F0008D12F0008F801002036
:102DF000024A0349034800F06BB800BF0C000020F2
:102E0000C95900081C00002041680C4B10B59942BC
:102E1000044601D002F0D8FDA168094B994202D0C6
:102E2000204602F0D1FDE168064B994204D02046CD
:102E3000BDE8104002F0C8BD10BD00BFF801002081
:102E400060020020C80200200C4B0D4A10B504217E
:102E50001A600C480022FFF795FF0A4B01221C461E
:102E6000092103F16800FFF78DFF04F1D000022271
:102E7000BDE810401221FFF785BF00BF30030020DE
:102E8000F12D0008F8010020014800F022B900BF30
:102E900039030020014800F01DB900BF39030020AC
:102EA00010B50446FFF7F0FF236A1BB1BDE81040E0
:102EB000FFF7F0BF044B2362044B1B68002BF5D1D6
:102EC000FFF7C2FFF2E700BF092E00083003002021
:102ED0002DE9F8430746884614460026D4E90195B3
:102EE000B9F1010905D52468002CF7D13046BDE8B9
:102EF000F883AB89012B07D9B5F90E30013303D024
:102F000029463846C04706436835E9E70EB46FF0F6
:102F1000004110B500249DB01FAB029006900791B0
:102F200004910948094953F8042B0591006802A946
:102F300001931B9402F0D2FB029B1C701DB0BDE8F4
:102F4000104003B0704700BF180000200802FFFFC8
:102F500010B50C46B1F90E1000F06CF80028ABBFAC
:102F6000636DA3891B1823F48053ACBF6365A381F1
:102F700010BD2DE9F0411F468B890546DB050C4647
:102F8000164605D502230022B1F90E1000F040F8D4
:102F9000A389324623F48053A38128463B46B4F9E3
:102FA0000E10BDE8F04100F057B810B50C46B1F96D
:102FB0000E1000F02DF8B4F90C30421C0BBF23F4B6
:102FC000805343F48053A381A38118BF606510BD73
:102FD000B1F90E1000F00CB803460244934200D140
:102FE000704703F8011BF9E70048704758010020BB
:102FF00038B50023054D044608462B60FEF7CFF890
:10300000431C02D12B6803B1236038BD3403002078
:1030100038B50446084611460022054D2A601A4676
:10302000FEF7E1F8431C02D12B6803B1236038BDE1
:103030003403002038B50446084611460022054DE9
:103040002A601A46FEF772F8431C02D12B6803B1BE
:10305000236038BD3403002038B5044608461146C5
:103060000022054D2A601A46FEF77DF8431C02D166
:103070002B6803B1236038BD34030020014B18686E
:10308000704700BF1800002070B500260C4D0D4B96
:103090005B1B9C10A64209D1002603F079FB0A4D68
:1030A0000A4B5B1B9C10A64205D170BD55F8043B32
:1030B00098470136EEE755F8043B98470136F2E7AA
:1030C0005C6C00085C6C00085C6C0008606C0008BC
:1030D000704770477047034610B5C9B20244934227
:1030E000184601D1002003E0047801338C42F6D168
:1030F00010BD0000004870470000C07F2DE9F74F69
:1031000003690C690746A3427EDB013CA30000F182
:10311000140501F11408009305EB8403019358F89A
:10312000243055F8242001339A42B2FBF3F608EB21
:1031300084092ED34FF0000AC446AE46D3465CF84D
:10314000043B98B206FB00A01B0C020C06FB0323F9
:10315000DEF8002080B292B2121A5A44DEF8000063
:103160004FEA134A9BB2C3EB224303EB104392B2E4
:1031700042EA0342E1454FEA234B4EF8042BDED2EC
:10318000009BEB582BB9019B043B9D421A462FD361
:103190003C61384601F0E2F9002825DB2946002091
:1031A00058F8042BD1F800C01FFA82FE1FFA8CF3E6
:1031B000A3EB0E030344120CC2EB234202EB1C42AE
:1031C0009BB243EA0243C1454FEA224041F8043B27
:1031D000E6D255F8242005EB840322B9043B9D4236
:1031E0001A460BD33C610136304603B0BDE8F08F80
:1031F0001268043B002ACBD1013CC6E71268043BAD
:10320000002AEFD1013CEAE70020EEE700000000D1
:103210002DE9F04F16461F46C26999B08146CDE9A7
:103220000E67259C82B9102000F020FE0246C9F8E6
:103230001C0020B9EF21A84BA84802F03DFC002358
:10324000C0E901330360C360116859B101235268BA
:10325000484693404A608B6000F0FCFE0022D9F89B
:103260001C301A60B7F10008B5BF012300232360AA
:1032700023609B4BBCBF28F00048CDF83C8033EA6C
:1032800008031AD142F20F73249AC8F3130858EABC
:103290000608136000F07485269B53B9914B21E01A
:1032A000914B03930833269A1360039819B0BDE835
:1032B000F08F8C4B03930333F5E7DDE90E34CDE952
:1032C0000A34DDE90A0100220023FDF76DFB824686
:1032D00050B10123249A1360269B13B1834B269A85
:1032E0001360834B0393E0E716AB019317AB009396
:1032F0004846DDE90A2301F04DFA5FEA1854169DAD
:1033000004907BD0DDE90A010B9BA4F2FF34C3F3E8
:10331000130343F07F5343F44013CDF850A01946F4
:103320000022744BFCF720FF65A3D3E90023FDF7CF
:10333000D3F865A3D3E90023FCF718FF064620461F
:103340000F46FDF75FF862A3D3E90023FDF7C4F849
:1033500002460B4630463946FCF708FF06460F4644
:10336000FDF76AFB00228046002330463946FDF710
:1033700025FB48B14046FDF745F832463B46FDF790
:1033800013FB08B908F1FF38B8F1160F53D8DDE97F
:103390000A01594B03EBC803D3E90023FDF70EFBE9
:1033A00000284AD0002308F1FF3811932D1B6B1E13
:1033B000099349BF00230027C5F101070993B8F11C
:1033C000000F3CDB099BCDF8408043440993002368
:1033D0000C93229B092B64D8052BC4BF043B22937A
:1033E000229BC8BF0024A3F10203D8BF0124032BF2
:1033F00000F28680DFE803F05153362B179C2C44F3
:1034000004F23243202BC1BFC3F1400308FA03F892
:1034100004F2124326FA03F3D6BFC3F1200348EAAD
:10342000030006FA03F0FCF7DDFF0122A1F1F873B7
:10343000013C149273E70123B7E71190B6E7C8F196
:1034400000030C930023A7EB08071093C1E70123A7
:103450000D93239B434408930133012B0593B8BF7D
:10346000012306E001230D93239B002B4BDD0893E2
:10347000059300210422D9F81C0002F114059D4295
:1034800046D94160484600F0A7FD0390002842D18C
:10349000024640F2AF11194BCEE60023E3E70023CA
:1034A000D6E7012400230D9422934FF0FF3300222E
:1034B0000893059312232392DBE700BFAFF300804C
:1034C00061436F63A787D23FB3C8608B288AC63F2A
:1034D000FB799F501344D33F706800088768000849
:1034E0000000F07F6C680008636800083B68000813
:1034F0003A6800080000F83F386A0008DF680008F2
:1035000001230D93D1E701231A4608930593D2E7CF
:1035100001315200B1E7D9F81C30039A1A60059BBB
:103520000E2B00F2A180002C00F09E80B8F1000F5D
:1035300036DD9F4B08F00F0203EBC20318F4807FC7
:103540004FEA2815D3E900AB16D0DDE90A01994B03
:103550000324D3E90823FDF7E9F8CDE9060105F0D6
:103560000F05944E75B9DDE9060152465B46FDF73D
:10357000DDF882468B462DE0DDE90A34CDE90634DC
:103580000224EEE7E90708D5D6E90023504659465C
:10359000FCF7A2FF82468B4601346D100836E1E746
:1035A00000F0AD80DDE90A01C8F10005804B05F0AF
:1035B0000F0203EBC203D3E90023FCF78DFF0224C3
:1035C00082468B4600237B4E2D11002D40F08C80CF
:1035D000002BCED1119B002B00F09580002250468D
:1035E0005946754BFDF7EAF9002800F08C80059BE1
:1035F000002B00F08880089B002B35DD08F1FF339D
:1036000050465946069300226C4BFCF765FF8246F4
:103610008B46089E01342046FCF7F4FE52465B467A
:10362000FCF75AFF0022664BFCF7A0FD0446A1F10F
:103630005075CDE91245002E69D1002250465946F9
:10364000604BFCF791FD22462B4682468B46FDF7E8
:10365000D3F9002840F0998222465046594605F198
:103660000043FDF7ABF920BB179B002BC0F265812F
:10367000B8F10E0F00F361814D4B03EBC803D3E9A2
:1036800000AB239B002B80F2EF80059B002B00F307
:10369000EB800ED100224B4B50465946FCF71CFFE5
:1036A00002460B46DDE90A01FDF792F9002800F019
:1036B0006F8200252C46239B039EDB4306932746FF
:1036C00000242946484600F0C5FC002F00F0C280C7
:1036D0002CB1BC4203D02146484600F0BBFC394621
:1036E000484600F0B7FCB5E0EA0705D5D6E9002367
:1036F000FCF7F2FE012301346D10083665E7022461
:10370000DDE90AAB66E7059ECDF8188083E7284B14
:1037100003EBC60353E902010D9B002B56D0024672
:103720000B4600202849FDF701F8DDE91223FCF7DC
:103730001BFD039BCDE912019D191E4659465046BB
:10374000FDF77AF90446FCF75DFE02460B4650464B
:103750005946FCF709FDDDE91223303406F8014B28
:1037600082468B46FDF72AF9002873D152465B4604
:1037700000201149FCF7F8FCDDE91223FDF71EF9E2
:10378000002840F0BB80AE423FF46EAFDDE912018D
:1037900000220A4BFCF7A0FE0022CDE91201074BE4
:1037A00050465946FCF798FE82468B46C6E700BF56
:1037B000386A0008106A00080000F03F000024404A
:1037C00000001C40000014400000E03FDDE912232F
:1037D000FCF782FE039BCDE912013344039D159350
:1037E00059465046FDF728F90446FCF70BFE0B46F8
:1037F000024659465046FCF7B7FC3034159B05F895
:10380000014B9D4282468B4627D1DDE91201039B85
:1038100000221E44B54BFCF7A9FC02460B4650465D
:103820005946FDF7E9F8002868D1DDE912230020A8
:10383000AE49FCF799FC02460B4650465946FDF747
:10384000BDF800283FF410AF334616F8012D302A9A
:10385000FAD01E46DDF818803EE00022A44BFCF7AB
:103860003BFE82468B46BBE70024039EA04D52469A
:10387000DDE90A015B46FCF759FFFDF7DDF8074675
:10388000FCF7C0FD52465B46FCF726FE02460B469F
:10389000DDE90A01FCF768FC07F1300C06F801CB02
:1038A000DDF80CC0DDF814E0A6EB0C0CE645024692
:1038B0000B4633D1FCF75AFC52465B4604460D4694
:1038C000FDF79AF8C0B952465B4620462946FDF7F7
:1038D0006BF808B1FB070FD44846049900F0BAFB17
:1038E0000023249A337008F101031360269B002BF8
:1038F0003FF4DBAC1E60D8E4CDF8188033461E469A
:1039000013F8012D392A06D1039A9A42F7D1069A63
:1039100001320692302201321A709BE722462B4672
:10392000FCF7DAFD02460B46CDE90A23002200230C
:10393000FDF73AF800289AD0CEE70D9A002A00F059
:10394000E380229A012A00F3C280149A002A00F030
:10395000BA8003F233430C9D3E46099A01211A4472
:1039600048461F44099200F073FC044656B1099B77
:10397000002B07DDB342A8BF3346099AFF1AF61A97
:10398000D31A09930C9B0BB30D9B002B00F0C38043
:10399000002D00F0BD8021462A46484600F016FD65
:1039A000049A01460446484600F068FC04998246A1
:1039B000484600F04FFB0C9B5B1B0C9300F0AE8065
:1039C00051460C9A484600F001FD049001214846FA
:1039D00000F03EFC109B0546002B00F0D8811A46F3
:1039E0000146484600F0F2FC229B0546012B00F3FD
:1039F0009D800E9B002B40F094800F9BC3F313031C
:103A0000002B40F08E800F9B23F000431B0D1B0505
:103A1000002B00F089804FF0010A099B0137013328
:103A20000993109B002B00F0B8812B6905EB8303F1
:103A3000186900F0C1FBC0F12000099B184410F088
:103A40001F007ED0C0F12003042B72DD099BC0F162
:103A50001C000344074406440993002F05DD3A4641
:103A60004846049900F00EFD0490099B002B05DDEB
:103A700029461A46484600F005FD0546119B002BD5
:103A800061D02946049800F069FD00285BDA08F14E
:103A9000FF3306930A2200234846049900F0FCFAFB
:103AA0000D9B0490002B00F07A81002321460A220E
:103AB000484600F0F1FA089B0446002B72DC229B7A
:103AC000022B49DC6EE0169BC3F1360343E7059BEE
:103AD0005D1E0C9BAB420DDB5D1B059B002BBFF6F7
:103AE0003BAF059BFE1A002337E700BF0000E03F15
:103AF000000024400C9B109AEB1A1A440C953E4689
:103B00000025059B109228E73E460C9D0D9C2DE755
:103B1000DDF810A054E70C9A049953E7CDF810A0F3
:103B200054E74FF0000A7CE79A467AE74FF0000A24
:103B30007BE792D0099A1C331A441F441E44099211
:103B40008BE70346F6E7059BCDF81880002B23DCB6
:103B50000893229B022B21DD089B002B7FF4ABAD49
:103B600029460522484600F097FA01460546049882
:103B700000F0F4FC00287FF79EAD3123039E06F889
:103B8000013B069B0133069399E535462C46F4E745
:103B9000059DCDF81880F9E7059B08930D9B002B38
:103BA00000F00181002E05DD21463246484600F036
:103BB00069FC0446BAF1000F5AD04846616800F02B
:103BC0000BFA064628B9024640F2EF21814BFFF777
:103BD00033BB226904F10C01023292000C3001F077
:103BE00057FF01223146484600F04CFC0746039B34
:103BF000039A03F1010B089B13440A930E9B03F0F5
:103C0000010309930BF1FF33294604980593FFF74D
:103C100075FA2146089000F1300A049800F09EFCE5
:103C20003A4680462946484600F0B4FCC26806463B
:103C300002BB0146049800F091FC0246314648461A
:103C40000C9200F007FA229B0C9A5E4642EA0301AE
:103C5000099B194310D1BAF1390F2BD0B8F1000FDD
:103C600002DD089B03F1310A059B83F800A028E5DB
:103C70002746BCE70122E1E7B8F1000F06DB229BF3
:103C800048EA0308099B58EA030820D1002AEBDD23
:103C900001220499484600F0F5FB2946049000F003
:103CA0005DFC002803DCDFD11AF0010FDCD0BAF193
:103CB000390FD6D13923059A137033461E4616F8AC
:103CC000012C013B392A53D001321A70F9E4002A41
:103CD00007DDBAF1390FEDD0059A0AF1010313702F
:103CE000EFE40A9B0BF801AC5B452BD000230A22C2
:103CF0000499484600F0D0F9BC4204904FF000030C
:103D00004FF00A022146484606D100F0C5F90446A4
:103D100007460BF1010B75E700F0BEF93946044682
:103D200000230A22484600F0B7F90746F1E7089B4E
:103D30002746002B03F1FF36D8BF00260024039B43
:103D40005A1C164401220499484600F09BFB294660
:103D5000049000F003FC0028AFDC02D11AF0010F40
:103D6000ABD133461E4613F8012D302AFAD0A8E411
:103D7000039A9A42A2D1069B013306933123AEE700
:103D8000269B002B7FF48CAA134BFFF7ABBA229B28
:103D9000012B7FF72EAEDDF840A001204DE6089BF9
:103DA000002B7FF7D6AE039E29460498FFF7A6F9AD
:103DB000039B00F1300A06F801ABF21A089B93420C
:103DC000B5DD00230A224846049900F065F9049005
:103DD000EAE700BFDF6800086368000838B50546F9
:103DE000002940D051F8043C0C1F002BB8BFE41848
:103DF00000F0E6F81C4A136833B963601460284683
:103E0000BDE8384000F0E2B8A34208D92068211884
:103E10008B4201BF19685B6809182160EDE71A46FB
:103E20005B680BB1A342FAD911685018A0420BD1BC
:103E300020680144501883421160E0D118685B6823
:103E4000084410605360DAE702D90C232B60D6E7F0
:103E5000206821188B4201BF19685B68091821602E
:103E600063605460CBE738BD40030020024B01463D
:103E7000186800F025B800BF1800002070B50F4E7C
:103E80000C463168054611B901F0F2FD306021465B
:103E9000284601F0EDFD431C03D14FF0FF342046CE
:103EA00070BDC41C24F00304A042F8D0211A284697
:103EB00001F0DEFD0130F2D1EFE700BF3C0300204E
:103EC0002DE9F843CD1C25F0030508350C2D38BF2E
:103ED0000C25002D064601DBA94204D90C233360D2
:103EE0000020BDE8F883DFF8D48000F069F8D8F846
:103EF00000301C4644BB29463046FFF7BFFF431C39
:103F0000044658D1D8F800402746002F43D1002C52
:103F10004BD023683946304604EB030901F0A8FD75
:103F2000814542D1216830466D1A2946FFF7A6FF28
:103F300001303AD023682B442360D8F800305A6807
:103F400062BBC8F800700FE02268521B20D40B2A15
:103F500017D96119A342256018BF5960636808BF6B
:103F6000C8F8001062514B60304600F02FF804F1A1
:103F70000B00231D20F00700C21A1CBF1B1AA35000
:103F8000AFE76268A3420CBFC8F800205A60EBE7B5
:103F900023466468AEE73C467F68B6E71A465B682E
:103FA000A342FBD100235360DEE70C23304633608D
:103FB00000F00CF894E70560D6E700BF400300204E
:103FC0000148FFF786B800BF380300200148FFF71B
:103FD00081B800BF3803002070B5C46905460E469D
:103FE00084B91020FFF742FF0446E86128B9024671
:103FF0006B21164B164801F05FFD0023C0E9013329
:104000000360C360E36853B921220421284601F00C
:1040100071FDEB69E060DB680BB9002070BD53F8FF
:10402000260030B1026843F826200023C0E903339C
:10403000F4E7012101FA06F4621D2846920001F01E
:1040400059FD0028E9D0C0E90164EEE77068000876
:10405000F068000870B5C66905460C4676B91020B0
:10406000FFF704FF0246E86120B98F21084B094899
:1040700001F022FDC0E901660660C6603CB1EB6953
:104080006268DB6853F82210216043F8224070BD5B
:1040900070680008F06800082DE9F04107460C46FA
:1040A0001E4600200D6901F1140CDCF800300130CF
:1040B00099B202FB01611E0C0B0C02FB063389B2A4
:1040C00001EB034185424FEA13464CF8041BECDC3C
:1040D0000EB3A368AB4219DC616838460131FFF7C3
:1040E0007BFF804628B90246BA210C4B0C4801F0F0
:1040F000E3FC226904F10C01023292000C3001F061
:10410000C7FC21463846FFF7A5FF444604EB85036C
:1041100001355E6125612046BDE8F081DF68000859
:10412000F06800082DE9F843154609221F460833B8
:104130000C4693FBF2F30646012200219A4209DB6A
:104140003046FFF749FF40B90246D321184B1948C2
:1041500001F0B2FC52000131F0E7089B092D4361E8
:104160004FF00103036116DD04F10908C1462C4438
:1041700019F8013B01460A223046303BFFF78CFF1D
:10418000A145F5D1A844A8F108042D1B63199F424D
:1041900004DCBDE8F88309250A34F6E714F8013B8E
:1041A00001460A223046303BFFF776FFEEE700BFBC
:1041B000DF680008F06800080346B0F5803F3ABFAA
:1041C000030410200020B3F1807F3CBF1B020830A5
:1041D000B3F1805F3CBF1B010430B3F1804F3CBFA3
:1041E0009B000230002B05DB13F0804F00F1010033
:1041F00008BF202070470368024613F007000BD069
:10420000D90721D4980749BF5B089B080120136098
:104210005CBF02201360704799B209B910201B0CD3
:10422000D9B209B908301B0A190704BF1B090430A9
:10423000990704BF9B080230D90703D45B0800F13B
:10424000010003D0136070470020704720207047A2
:1042500010B50C460121FFF7BFFE024628B940F217
:104260004511044B044801F027FC0123446103611C
:1042700010BD00BFDF680008F06800082DE9F04FAE
:10428000D1F81090D2F810A08846D145144685B0D8
:1042900004DB53460C46CA4690469946A3686168BB
:1042A0000AEB0906B342B8BF0131FFF795FE30B9FA
:1042B00002464FF4B171434B434801F0FDFB00F15E
:1042C00014052B46002205EB8607BB421FD304F1E1
:1042D000140C08F114010CEB8A0301EB8902029221
:1042E0001A1B153A22F0030215349C4288BF0022A3
:1042F0000192029A03918A420CD8002E03DD57F8EE
:10430000043D002B5CD0066105B0BDE8F08F43F89A
:10431000042BDAE7B1F800A0BAF1000F23D0E04691
:10432000A9464FF0000E58F8042BD9F800401FFAA8
:1043300082FBA4B20AFB0B447444D9F800E0120CCF
:104340004FEA1E4E0AFB02E202EB1442A4B244EA18
:10435000024443454FEA124E49F8044BE3D8019A10
:10436000AA18C2F804E0039A0431B2F80280B8F146
:10437000000F23D02A68E6469146AA464FF0000B6C
:10438000BEF8004092B208FB04B404EB194442EAC0
:1043900004424AF8042B5EF8042BDAF800904FEA46
:1043A000124B1FFA89F208FB0B22734502EB1442F1
:1043B0004FEA124BE4D8019C2C196260043598E74F
:1043C000013E9AE7DF680008F06800082DE9F8432D
:1043D000174612F0030280460D4607D0264C013ADC
:1043E000002354F82220FFF757FE0546BF103FD0A8
:1043F000D8F81C4094B91020FFF738FD0446C8F8DF
:104400001C0030B9024640F2B3111C4B1C4801F0AD
:1044100053FB0023C0E901330360C360A66846B9BB
:1044200040F271214046FFF713FF00230646A060CB
:1044300003602C464FF0000907F001037F1053B1D1
:10444000294632464046FFF719FF214605464046B9
:10445000FFF700FE67B1306838B932463146404652
:10446000FFF70CFF3060C0F8009006462C46E3E7EB
:104470002846BDE8F88300BF006A0008706800089D
:10448000F06800082DE9F84F0C46074615462369E9
:10449000496803EB6218A3684FEA621A08F1010940
:1044A0004B450BDB3846FFF797FD064648B90246F9
:1044B0004FF4EF71274B284801F0FEFA01315B0001
:1044C000EEE70023194600F1140C00F110025345E9
:1044D00034DB22692AEAEA7A0CEB8A0C04F1140331
:1044E00015F01F0E614603EB82022BD00025CEF1A2
:1044F000200A8B461868043100FA0EF02843CBF8E6
:10450000000053F8045B9A4225FA0AF5F1D8131B10
:10451000153B23F0030304F115018A4238BF002341
:104520009C44CCF8045005B9C14638462146C6F82B
:104530001090FFF78FFD3046BDE8F88F42F8041F5A
:104540000133C4E753F8045B04319A4241F8045C38
:10455000F8D8E9E7DF680008F068000803460A6950
:10456000006930B5801A0ED11433143103EB820484
:1045700001EB820154F8045D51F8042D954203D0FB
:1045800005D24FF0FF3030BDA342F3D3FBE701204B
:10459000F9E700002DE9F74F8A46064611465046D6
:1045A0001446FFF7DBFF051E12D129463046FFF700
:1045B00013FD024628B940F23721404B404801F034
:1045C0007BFA0123C0E90435104603B0BDE8F08F43
:1045D000BCBF5346A2463046DAF80410BABF1C46A8
:1045E00001250025FFF7F8FC024618B940F24521E5
:1045F000324BE3E7C56000F11405AB464FF0000C09
:10460000DAF8107026690AF1140904F1140E0AF19F
:10461000100309EB87080EEB86060193019B5EF8F9
:10462000040B53F804AF81B201931FFA8AF35B1AAB
:10463000000C6344C0EB1A4000EB23409BB243EAFA
:10464000004376454FEA204C4BF8043BE6D8331B39
:10465000153B153423F00303A64238BF0023E818A6
:104660004B441C1D26460430A5EB0905464506EBC8
:10467000050E0ED308F10301091B21F003010133DC
:10468000984538BF0021014451F8043DA3B117619A
:104690009AE7E24656F8041B1FFA81FCD4444FEA1D
:1046A0001149514409EB2C4989B241EA09414FEAC9
:1046B000294CCEF80010D9E7013FE5E7DF68000894
:1046C000F06800080E4B0B40A3F15073002B08DC80
:1046D0005B42B3F1A07F4FEA235204DA4FF4002388
:1046E0001341002208E0A2F114031E2BD6BF4FF0A5
:1046F00000420122DA40002319461046704700BFED
:104700000000F07F0269F8B500F1140707EB8202A0
:1047100052F8044C1E4D2046FFF74EFD0346C0F1F3
:1047200020000A2BA2F10406086012DCB7422CBF5D
:10473000002252F8082CC3F10B0C153324FA0CFE9E
:1047400004FA03F322FA0CF24EEA05011A4310466A
:10475000F8BDB74236BFA2F10806002252F8082C75
:104760000B3B12D0C3F1200522FA05F19C400C430B
:10477000BE4244F07F5194BF002456F8044C9A4046
:10478000EC4041F440112243E1E744EA0501DEE751
:104790000000F03F2DE97343012190469946089EA1
:1047A000FFF71AFC044630B9024640F20F31234BA2
:1047B000234801F081F9C9F30A55C9F313030DB178
:1047C00043F480130193B8F1000324D068460093AA
:1047D000FFF711FD0099E0B1019AC0F1200302FA40
:1047E00003F30B43C24063610192019B002B0CBF9A
:1047F00001220222A3612261ADB1A5F23345054435
:104800003560C0F13500099B1860204602B0BDE854
:1048100070836161E9E701A8FFF7EDFC019B0122CC
:1048200063612030E7E7A0F2324004EB820330609E
:104830001869FFF7C1FCC0EB4210E4E7DF6800082D
:10484000F06800082DE9F04F85B0CDE9001002A90D
:10485000FFF758FF8B4606460F46009803A9FFF75F
:1048600051FF0D46019B89461969009B04461B694F
:104870003046C91ADDE902329B1A03EB4113002BC3
:10488000CDBF3A462A46C3EB033302EB035BD8BFE6
:1048900002EB03594B4622465946FBF747FF05B04A
:1048A000BDE8F08F013970B549111469013102F189
:1048B000140300EB810103EB8404051FA3420CD316
:1048C000A31A113B23F003031132944238BF002393
:1048D00018440023884205D370BD53F8046B45F893
:1048E000046FEBE740F8043BF4E700F114020069C1
:1048F0004B11984210B511DB0ADD11F01F0107D0F2
:1049000052F8234024FA01F000FA01F18C420BD155
:1049100002EB8303934203D8002010BD0346F7E760
:1049200053F8041D0029F5D00120F6E72DE9F041E8
:104930000F469046FFF7C6FE04460D46B8F1000F3D
:1049400011D0C7F30A53C3F16B03002B0BDD002416
:104950001B0503F17F5505F5401522462B46FBF755
:10496000BBFD04460D4620462946BDE8F081000007
:104970002DE9F04F9DB0159200220E464FF0000831
:104980004FF000090490189217910A780D462B2ACF
:1049900001F101011DD00BD80D2A06D8082AF3D841
:1049A0007AB100239A460B9381E0202AECD0F8E7F5
:1049B0002D2A10D10122691C17910B926A78002AC6
:1049C00035D1159B1796002B40F08B854046494604
:1049D0002AE00022EFE700210B91302A40F0998075
:1049E0006A7802F0DF02582A58D102930B9B814A61
:1049F000019318AB0093049819AB17A901F0F6F8CE
:104A000010F00F06044605D0062E12D10023013502
:104A100017950B93159B002B40F065850B9B002B86
:104A2000D4D0404609F100411DB0BDE8F08F0D46DD
:104A3000D3E7189A3AB135211AA8FFF733FF18992E
:104A40000498FFF707FB013E042E06D8DFE806F0C6
:104A500014031E211400DDE91A89E00548BF49F05E
:104A6000004929F000431B0D1B05002BD2D1FEF796
:104A700005FB22230360CDE7199ADDE91A8302F2D0
:104A8000334223F4801343EA0259E6E7DFF86891E2
:104A9000E3E76FF000494FF0FF38DEE70135179587
:104AA0002B78302BFAD0002BB4D04FF0010A00271E
:104AB0002B46BB460A210E97184613F8014BA4F16A
:104AC0003002092A28D901224C4900F0BEFF0028F3
:104AD00033D0002022465C46CDE90600652A01D08D
:104AE000452A14D124B95AEA00033FF46AAF0024DE
:104AF000179E731C179372782B2A72D02D2A76D0AA
:104B00004FF0000CA2F13003092B7DD9179600233A
:104B10009FE04FF0000ACAE7BBF1080FD7BF0E9A1B
:104B200001FB074201FB0242303AD4BF0E92A2F1D0
:104B300030070BF1010B1793BEE7179B5A1C179216
:104B40005A78BBF1000F33D05C460690A2F13003D7
:104B5000092B12D901230793C0E7179B01305A1C78
:104B600017925A78302AF8D0A2F13103082B00F2BC
:104B7000BF84069000200446179D303A00F10103DF
:104B800010D00699204419440A230691A04211D15D
:104B9000082800F1010419DC0A230E9903FB012304
:104BA0000E930023179A1846511C17915278CDE79F
:104BB0005846D7E7082C04F1010403DC0E99594349
:104BC0000E91E3E7102CD8BF5F43DFE70F28DCBF6F
:104BD0000A2303FB0727E4E700210123CDE906139D
:104BE00081E74FF0000CB31C1793B2788AE74FF0BF
:104BF000010CF8E7146B00080000F07F4969000819
:104C0000179B5A1C17925A78302AF9D0A2F1310317
:104C1000082B3FF67CAF179BA2F1300E1946059387
:104C20000B46013317931A781946A2F13003092B6A
:104C30003CD9059BCB1A082B44F61F633CDC9E45F0
:104C4000A8BF9E46CDF814E0BCF1000F02D0059B32
:104C50005B420593002C50D15AEA00007FF4DAAE93
:104C6000079B002B7FF4ADAE692A29D026DC492AA8
:104C700026D04E2A7FF4A5AE9F4917A801F0D8F997
:104C800000283FF49EAE179B1B78282B2FD19B4901
:104C90001AAA17A801F0E0F9052828D11B9BDDF816
:104CA000688043F0FF4949F4E009B3E60A2303FBB7
:104CB0000E22A2F1300EB3E70593C5E76E2AD9E7BD
:104CC0008F4917A801F0B4F900283FF47AAE179B7A
:104CD0008C49013B17A8179301F0AAF910B9179B4B
:104CE000013317934FF00008DFF81C9292E68748D3
:104CF00000F0DCFE804689468CE6DDE90532BBF13A
:104D0000000F08BFA3469B1A102C0E98A2460A93C8
:104D1000A8BF4FF0100AFBF765FB092C80468946B7
:104D200011DC0A9B002B3FF475AE0A9B71DD162B3C
:104D300058DC7749424601EBC3014B46D1E90001FB
:104D4000FBF7CAFBD6E7724B03EBCA0353E9122306
:104D5000FBF7C2FB804638468946FBF743FB024619
:104D60000B4640464946FBF701FA0F2C8046894620
:104D7000D7DD0A9BA4EB0A0A9A44BAF1000F40F36C
:104D800097802AF00F061AF00F0A51D1B6F59A7FD4
:104D90005EDC0023404649461F46DFF878A1361105
:104DA000012E79D10BB1804689465A49A9F154792F
:104DB00001EBC7014246D1E900014B46FBF78CFBF2
:104DC000514B0A460B40544980468B4240D8A1F5CE
:104DD00080118B4286BF4FF0FF38DFF8409102F11F
:104DE000547932E00A9AC4F125039342C1DB484D5D
:104DF000C4F10F0405EBC4014246D1E900014B4662
:104E0000FBF76AFB0A9B1C1B05EBC405D5E90023D5
:104E100096E71633ADDBDDE905239A1A3C4B404695
:104E200003EBC2034946D3E90023FBF77FFC61E7AC
:104E30003749424601EBCA014B46D1E90001FBF775
:104E40004BFB80468946002EA0D1002307939FE0AC
:104E5000002405940E94069422234FF00008049A2F
:104E6000DFF8A49013600E9B002B3FF4D3AD18998C
:104E70000498FFF7EFF806990498FFF7EBF8DDE9DF
:104E80000401FFF7E7F80E990498FFF7E3F82146CD
:104E90000498FFF7DFF8BDE5F20704D5DAE900234F
:104EA000FBF71AFB0123013776100AF1080A77E7AE
:104EB000CBD0CAF1000A4FEA2A161AF00F0A0DD118
:104EC0001F2E2DDD002405940E9406942223049AAF
:104ED0004FF000084FF000091360C4E70C4B404648
:104EE00003EBCA034946D3E90023FBF71FFC8046C6
:104EF0008946002EA9D0E3E737680008006B000858
:104F00002F680008666800080000F07F9F690008AD
:104F1000386A0008106A00080000A07CFFFFEF7FDD
:104F200016F0100318BF6A23404607934946002332
:104F3000764FF20704D5D7E90023FBF7CDFA01231A
:104F4000761007F10807F4D10BB180468946079B1C
:104F5000B3B1C9F30A52C2F16B03002B49460FDD0E
:104F60001F2B59DD342BD8BF4FF0FF334FF0000813
:104F7000CFBF4FF05C79C2F14B02934003EA0109C5
:104F80000022002340464946FBF70EFD002899D138
:104F90000E9B5A460093294623460498FFF7C2F811
:104FA0000E9000283FF454AFDDE905239B1A0A9ABE
:104FB0000024002AA8BF0023129322EAE27314936C
:104FC00005940E9B04985968FFF706F80690002890
:104FD0003FF442AF0E9B0C301A6903F10C01023210
:104FE000920000F055FD1AAB019319AB00934246B5
:104FF0004B460498CDE90C89FFF7CCFB18900028AC
:105000003FF42AAF01210498FFF722F903460590E7
:1050100048B9002305931FE74FF0FF3202FA03F36C
:1050200003EA0808ACE7199D1A9A002DABBF129B42
:10503000149BEF185E1B079BA8BF149EA5EB0305EE
:105040001544334B05F1FF35B8BF129F9D42C2F1A5
:1050500036024FDA5B1B1F2B4FF00101A2EB03025C
:105060003CDC4FF0000B01FA03FABD18079BAF427E
:1050700016441E443B46A8BF2B46B342A8BF334646
:10508000002BC2BFED1AF61AFF1A129B002B16DD79
:10509000DDE904011A46FFF799F905900028B8D018
:1050A0000146189A0498FFF7E9F80F9000283FF49A
:1050B000D3AE18990498FEF7CDFF0F9B1893002DDF
:1050C0001BDC0A9B002B25DD149A06990498FFF738
:1050D0007DF90690F0B900230693BDE6C5F17F4542
:1050E00005F57F0505F57B45E23501FA05FB4FF037
:1050F000010ABAE74FF0000BF9E72A46189904981D
:10510000FFF7C0F918900028DBD1A5E6286B00084E
:1051100002FCFFFF002E07DD324606990498FFF7D8
:10512000B1F906900028D6D0002F08DDDDE9040192
:105130003A46FFF7A7F9059000283FF48DAE069A8E
:1051400018990498FFF726FA044600283FF484AE25
:10515000C36805990F930023C360FFF7FFF9002888
:105160003CDA0F9B53EA08035ED1C9F313034D46A3
:10517000002B59D129F000431B0D1B05B3F1D66F4D
:1051800052D9636913B92369012B4DDD21460122F0
:105190000498FFF777F905990446FFF7DFF900282F
:1051A00042DDA74B079A2B40002A5FD0B3F1D66FA0
:1051B0005CD8B3F15C7F7FF689AE40464946A14B8F
:1051C0000022FBF789F99E4B80460B408946002B55
:1051D0007FF44DAE2223049A136048E64D4662D117
:1051E0000F9AC9F3130342B3974A934228D1079BFE
:1051F0004146EBB1924B4FF0FF322B40B3F1D46FED
:1052000019D81B0DC3F16B0302FA03F3994217D1AE
:105210008E4B9D4202D101313FF41EAE4FF000088B
:10522000874B2B4003F58019079B002BC5D11EE649
:105230004FF0FF33EAE71346E8E753EA0803B0D03C
:10524000BBF1000F1BD01BEA050FEDD00F9B4046B2
:105250004946079AB3B1FFF769FB02460B46DDE901
:105260000C01FAF783FF80468946DDE7A3F580133A
:105270006FEA13594FF0FF386FEA0959D4E71AEA79
:10528000080FE2E7FFF752FB02460B46DDE90C018F
:10529000FAF76AFF0022002380468946FBF784FB69
:1052A0000028C1D012E620460599FFF7CBFA00226C
:1052B0004FF0804306460F46FBF78AFB00286ED06E
:1052C0000F9B002B79D1B8F1000F54D1C9F3130310
:1052D000002B56D10022304639465D4BFBF76EFB62
:1052E000002857D10022304639465A4BFBF7F4F8D4
:1052F00082468B460BF10043CDF820A00993504B1A
:105300004F4A2B401393544B2A409A42DDE90867D9
:1053100040F0A880A5F1547940464946FFF7D2F9FC
:10532000DDE90823FBF7D8F842464B46FAF71EFFA3
:10533000434D4A4A0D409542804645D90D9A434B0C
:105340009A4203D10C9B01333FF486AD4FF0FF38F6
:10535000DFF8F89018990498FEF77CFE06990498F7
:10536000FEF778FEDDE90401FEF774FE214604989D
:10537000FEF770FE25E6B8F1010F02D1002D3FF4D3
:10538000A5AD0022364B4FF0000ACDE90823DFF827
:10539000C0B0B4E74FF0000ADFF8B8B0AAE72D4B71
:1053A000002230463946FBF797F80F9B82468B4622
:1053B000002B9FD0CDE908ABA1E70022244B9246F9
:1053C0009B46CDE908239AE701F15479079B002B0E
:1053D000C0D129F00043139A1B0D1B059A42B9D185
:1053E00050465946FBF7C0FBFBF748F802460B4610
:1053F00050465946FAF7B8FE0F9AC9F3130343EA29
:105400000803134306460F4665D009A3D3E90023DA
:10541000FBF7D4FA00287FF42AAD07A3D3E90023D1
:1054200030463946FBF7E8FA002893D01FE500BF65
:105430009535A094FFFFDF3F35E5AF350000E03F35
:105440000000F07F00005039FFFF0F00FFFFEF7FEB
:105450000000F03F0000E03F0000E07FFFFF9F7C86
:105460000000F0BF079B13B3139BB3F1D46F1ED89A
:1054700025A3D3E9002350465946FBF7A9FA90B17A
:1054800059465046FBF700FB012838BF0120FAF7C8
:10549000A9FF0F9B82468B46D3B901F100431090C0
:1054A0001193DDE91067139A07F1D6639F1ADDE9BE
:1054B0000C01FFF707F902460B4630463946FBF769
:1054C0000BF8DDE90C23FAF751FE804689467DE7AB
:1054D000CDE910ABE5E70EA3D3E90023FBF76EFAA5
:1054E000A2E700230B93179B159A1360FFF796BA58
:1054F000652A3FF471AB452A3FF46EAB0123079355
:10550000FFF7AABBAFF300800000C0FFFFFFDF4141
:105510009535A094FFFFCF3F014BFFF729BA00BF9D
:1055200068000020242B2DE9F0478646904601D8DC
:10553000012B06D1FDF7A2FD162303600020BDE874
:10554000F0870D4633482A4615F8014B065D16F0E4
:105550000806F8D12D2C10D101262C78951C33F09B
:10556000100215D1302C0DD12A7802F0DF02582A12
:1055700008D16C78023510230AE02B2C04BF2C785C
:10558000951CECE7002BF6D1302C14BF0A2308231E
:10559000002206F1004C0CF1FF3CBCFBF3F9104675
:1055A00003FB19CAA4F13007092F0FD83C46A342C8
:1055B0001BDD571C07D0814514D301D1A24511DB57
:1055C000012200FB034015F8014BEBE7A4F1410772
:1055D000192F01D8373CEAE7A4F16107192F04D845
:1055E000573CE4E74FF0FF32EDE7531C08D122238C
:1055F0006046CEF80030B8F1000FA0D0691E06E07A
:1056000006B14042B8F1000F99D0002AF6D1C8F88F
:10561000001094E7516B0008FFF784BF2DE9F047B5
:105620001F468E688246BE420C469046334653D88B
:10563000B1F90C0010F4906F2BD0656923680969EB
:1056400005EB4505A3EB010905EBD5757B1C6D103A
:105650004B44AB422A4684BF1D462A46430527D504
:1056600011465046FEF72CFC064658B34A462169BF
:1056700000F00EFAA38923F4906343F08003A38122
:1056800026614E4426603B463E466561A5EB090512
:10569000A5601F463A464146206800F0BDF900204B
:1056A000A3689B1BA36023683B442360BDE8F0878D
:1056B000504600F080FD06460028E1D150462169A1
:1056C000FEF78CFB0C23CAF80030A3894FF0FF30A3
:1056D00043F04003A381E9E73E46DBE72DE9F047CD
:1056E0001F468B8906461B060D4614469CB010D5F6
:1056F0000B6973B94021FEF7E3FB2860286130B9DC
:105700000C2333604FF0FF301CB0BDE8F08740231E
:105710006B610023099320238DF8293030234FF04B
:1057200001080397644F8DF82A302346994613F8F1
:10573000012B0AB1252AF9D1B9EB040A0BD0534643
:10574000224629463046FFF769FF013000F0A48069
:10575000099A5244099299F80030002B00F09C807D
:1057600000234FF0FF32CDE9052309F1010904932D
:1057700007938DF853301A934C46052214F8011BF9
:105780004D48FDF7A8FC049BD0B9D80644BF2022A1
:105790008DF85320190744BF2B228DF8532099F818
:1057A00000202A2A13D04C4600204FF00A0C079AFA
:1057B000214611F8013B303B092B49D968B913E068
:1057C000C01B08FA00F01843A1460490D4E7039ADE
:1057D000111D12680391002A01DB079204E0524276
:1057E00043F002030792049323782E2B0AD16378A7
:1057F0002A2B32D1039B02341A1D1B68039243EA01
:10580000E3730593DFF8B490032248462178FDF74F
:1058100062FC38B14022049BA0EB09008240134394
:105820000134049314F8011B062225488DF8281032
:10583000FDF751FC002835D0224818BB039B0733E5
:1058400023F0070308330393099B034409936CE790
:105850000C4601200CFB0232AAE700234FF00A0C91
:10586000194601340593204610F8012B303A092AD5
:1058700003D9002BC6D00591C4E7044601230CFBD5
:105880000121F0E703AB00932A4630460E4B04A9F2
:10589000FCF7AAFC421CD7D1AB895B063FF532AFBF
:1058A000099831E703AB00932A463046064B04A91A
:1058B000FCF738FFEEE700BF4B69000851690008AC
:1058C00055690008E92100081D560008B1F90C20AF
:1058D000F8B5160705460C4651D44B68002B02DC80
:1058E0000B6C002B49DDE66A002E46D0002312F433
:1058F00080522F682B6031D0626DA389590705D57E
:105900006368D21A636B0BB1236CD21A002328464A
:10591000E66A216AB047421CB4F90C3006D1296806
:105920001D2945D8274ACA40D60741D500226260C2
:105930002269D904226004D5421C01D12B6803B925
:105940006065616B2F60C1B104F14403994202D0DC
:105950002846FEF743FA002363630EE0012328463E
:10596000216AB0470246501CC7D12B68002BC4D017
:105970001D2B01D0162B19D12F6000201DE00F69BF
:10598000002FFAD0930718BF00230E6808BF4B6999
:10599000F61B0F608B60002EEFDD33463A4628463B
:1059A000216AD4F828C0E047002807DCB4F90C309D
:1059B0004FF0FF3043F04003A381F8BD0744361A8F
:1059C000E9E700BF0100402038B50B6905460C46E9
:1059D00013B90025284638BD18B1036A0BB9FDF785
:1059E0005FFAB4F90C30002BF3D0626ED00704D408
:1059F000990502D4A06DFDF76CFB28462146FFF700
:105A000065FF636E0546DA07E4D4A3899B05E1D4FC
:105A1000A06DFDF75FFBDDE7884210B501EB0204E6
:105A200002D98442234607D8431EA14207D011F869
:105A3000012B03F8012FF8E70244824200D110BD88
:105A400013F8011D02F8011DF7E710B56AB101391D
:105A5000841810F8012B11F8013F9A4203D1A0429B
:105A600001D0002AF5D1D01A10BD1046FCE7000085
:105A700038B50023054D044608462B60FBF7C0FBF4
:105A8000431C02D12B6803B1236038BD34030020CE
:105A90000A44914200F1FF3300D1704710B511F86C
:105AA000014B914203F8014FF9D110BD002001498B
:105AB000704700BF0000F87F1FB514461A46094B17
:105AC00005461B68D8684CB1074BCDE901340091FD
:105AD0002B46064900F0AAFB00F0BAFB044B1C461B
